:100000000C945D000C9485000C9485000C94850084
:100010000C9485000C9485000C9485000C9485004C
:100020000C9485000C9485000C9485000C9485003C
:100030000C9485000C9485000C9485000C9485002C
:100040000C9424200C9485000C9494200C946E2025
:100050000C9485000C9485000C9485000C9485000C
:100060000C9485000C94850000000008000201003B
:100070000003040700000000000000000000000072
:10008000250028002B0000000000240027002A0083
:10009000040404040404040402020202020203032E
:1000A0000303030301020408102040800102040836
:1000B0001020010204081020112111241FBECFEFCF
:1000C000D8E0DEBFCDBF12E0A0E0B1E0EAEBFCE497
:1000D00002C005900D92A43DB107D9F727E0A4ED29
:1000E000B2E001C01D92A930B207E1F710E0CDE502
:1000F000D0E004C02197FE010E944526CC35D107EF
:10010000C9F70E94A1210C945B260C94000090E09A
:10011000FC01EC55FF4F249180579F4FFC018491C7
:10012000882399F090E0880F991FFC01EA57FF4F50
:10013000A591B491FC01E458FF4F859194918FB73C
:10014000F894EC91E22BEC938FBF089590E0FC01C2
:10015000E859FF4F2491FC01EC55FF4F3491FC010D
:10016000E057FF4FE491EE23C9F0222339F023300A
:1001700001F1A8F4213019F1223029F1F0E0EE0F5D
:10018000FF1FE458FF4FA591B4918FB7F894EC91FD
:10019000611126C030953E233C938FBF08952730D0
:1001A000A9F02830C9F0243049F7809180008F7D74
:1001B00003C0809180008F7780938000DFCF84B56B
:1001C0008F7784BDDBCF84B58F7DFBCF8091B0006E
:1001D0008F778093B000D2CF8091B0008F7DF9CF20
:1001E0003E2BDACF3FB7F8948091A8039091A903F2
:1001F000A091AA03B091AB0326B5A89B05C02F3FE1
:1002000019F00196A11DB11D3FBFBA2FA92F982F3C
:100210008827BC01CD01620F711D811D911D42E037
:10022000660F771F881F991F4A95D1F708958F92FF
:100230009F92AF92BF92CF92DF92EF92FF924B01CB
:100240005C010E94F2006B017C010E94F2006C19BB
:100250007D098E099F09683E734081059105A8F3C9
:1002600021E0821A9108A108B10888EEC80E83E047
:10027000D81EE11CF11C81149104A104B10429F7DA
:10028000FF90EF90DF90CF90BF90AF909F908F90B6
:1002900008952FB7F8946091A4037091A5038091FD
:1002A000A6039091A7032FBF0895DC01ED91FC9167
:1002B0000190F081E02D0994AF92BF92CF92DF922E
:1002C000EF92FF920F931F93CF93DF936C017B010B
:1002D0008B01040F151FEB015E01AE18BF08C0179C
:1002E000D10759F06991D601ED91FC910190F0810F
:1002F000E02DC6010995892B79F7C501DF91CF91D2
:100300001F910F91FF90EF90DF90CF90BF90AF9033
:100310000895FC01538D448D252F30E0842F90E00B
:10032000821B930B541710F0CF96089501970895F0
:10033000FC01918D828D981761F0A28DAE0FBF2FB9
:10034000B11D5D968C91928D9F5F9F73928F90E00F
:1003500008958FEF9FEF0895FC01918D828D98177E
:1003600031F0828DE80FF11D858D90E008958FEFBB
:100370009FEF0895FC01918D228D892F90E0805C84
:100380009F4F821B91098F73992708958CED95E0FB
:100390000E94BA0121E0892B09F420E0822F089500
:1003A00080E090E0892B29F00E94C60181110C9415
:1003B00000000895FC01A48DA80FB92FB11DA35A08
:1003C000BF4F2C91848D90E001968F739927848F75
:1003D000A689B7892C93A089B1898C918370806498
:1003E0008C93938D848D981306C00288F389E02D39
:1003F00080818F7D80830895EF92FF920F931F93EA
:10040000CF93DF93EC0181E0888F9B8D8C8D9813C7
:100410001AC0E889F989808185FF15C09FB7F894D3
:10042000EE89FF896083E889F9898081837080641F
:1004300080839FBF81E090E0DF91CF911F910F916A
:10044000FF90EF900895F62E0B8D10E00F5F1F4F79
:100450000F731127E02E8C8D8E110CC00FB607FC88
:10046000FACFE889F989808185FFF5CFCE010E9416
:10047000DA01F1CFEB8DEC0FFD2FF11DE35AFF4FA9
:10048000F0829FB7F8940B8FEA89FB8980818062A4
:10049000CFCFCF93DF93EC01888D8823B9F0AA8961
:1004A000BB89E889F9898C9185FD03C0808186FD2F
:1004B0000DC00FB607FCF7CF8C9185FFF2CF80817E
:1004C00085FFEDCFCE010E94DA01E9CFDF91CF9118
:1004D00008958823E9F0A0ECB4E025E014969C91FF
:1004E000149789130DC095E0899FF0011124E05401
:1004F000FB4F848114968C93138212821482089588
:10050000992331F0929FD0011124A054BB4FE6CF24
:1005100008958823A1F09091D105992381F08F3F10
:1005200029F48091CD059091CE05089595E0899F9D
:10053000F0011124E054FB4F82819381089590E0F3
:1005400080E008958EBD00000DB407FEFDCF8EB58E
:1005500008951F93CF93DF93182FC62FD42F60E0F9
:100560008AE00E94A6008C2F8F71812B0E94A2022C
:100570008D2F0E94A20261E08AE0DF91CF911F914E
:100580000C94A600CF93DF93D82FD07690910001E2
:100590009D17A1F0C82F43E06FE180EA0E94A902F5
:1005A0004C2F50E085E0559547958A95E1F74370CB
:1005B0006FE180E80E94A902D0930001DF91CF9102
:1005C00008951F93CF93DF93C82F162FD72F0E9424
:1005D000C202412F6C2F80E40E94A90261E06C0FDF
:1005E0004D2F80E4DF91CF911F910C94A902EF92DF
:1005F000FF920F931F93CF93DF938B017A018F3F6D
:1006000059F095E0899FE0011124C054DB4F6881C7
:100610007981600F711F0FC06091CB057091CC057F
:10062000600F711FCBECD5E0611588E0780778F397
:100630007850CBECD5E080E00E94E1028A819B817A
:10064000801B910BE816F90608F4C701DF91CF91E2
:100650001F910F91FF90EF900895EF92FF920F93EB
:100660001F93CF93DF93EB0170E060E00E94F702ED
:100670008C0160E08AE00E94A6008AE30E94A20248
:100680007E01E00EF11EEC16FD0629F080E00E94CE
:10069000A2028993F8CF61E08AE00E94A600C80117
:1006A000DF91CF911F910F91FF90EF90089560918E
:1006B000C9057091CA056115710529F0615071096C
:1006C0008CE00C94E1026FEF77E0FACFCF93DF93E9
:1006D000C82FD62F0E94C2024D2F6C2F80E4DF91CD
:1006E000CF910C94A902CF93DF93D82FC62F60E04F
:1006F0008AE00E94A6008C2F8F718D2B0E94A2028F
:10070000C7FF03C080E00E94A20280E00E94A20214
:10071000C82F61E08AE00E94A6008C2FDF91CF9164
:100720000895CF93C82F0E94C2026C2F80E0CF9112
:100730000C947303CF93DF93EB01682F84ED0E9439
:100740006603BE0186ED0E94E102CFE0D0E08AEEB2
:100750000E94910380FF08C06AE070E080E090E0B2
:100760000E941701219799F7DF91CF910895CF93B8
:10077000C62FBC0182E00E94E10260E08AE00E9494
:10078000A6008AE70E94A2028C2F0E94A20261E0CA
:100790008AE0CF910C94A600CF93BC0180E00E9428
:1007A000E10260E08AE00E94A6008AE30E94A202C1
:1007B00080E00E94A202C82F61E08AE00E94A600A9
:1007C0008C2FCF910895CF92DF92EF92FF920F93EB
:1007D0001F93CF93DF936C018B014130510579F466
:1007E000CB010E94CC03682FC601DF91CF911F91EE
:1007F0000F91FF90EF90DF90CF900C94B703EA0138
:10080000C60FD71F7E0181E0E81AF10880E10E943F
:10081000E102B60184E10E94E1020115184048F4AA
:10082000E11488E0F80628F07E0181E0E81A88E00B
:10083000F80AB70182E10E94E10240E16FE180EA3B
:100840000E94A90240E26FE180E80E94A9026FE1E4
:1008500080E00E94730385FF07C061E070E080E0E4
:1008600090E00E941701F3CFDF91CF911F910F917C
:10087000FF90EF90DF90CF900895CF92DF92EF92AC
:10088000FF920F931F93CF93DF938C016091C0046D
:100890007091C1046150784EC12C98E1D92EE0ECE2
:1008A000F4E020E0D0E0C0E045E03481CB01332328
:1008B00041F0439FC001112480549B4FDC018D9176
:1008C0009C91E080F1808E199F090280F381E02DD8
:1008D0008E1B9F0B8017910799F4B5E02B9FE001C9
:1008E0001124C054DB4FE5ECF4E081E02281338138
:1008F000232B09F453C035968F5F8533B9F744C075
:100900000817190748F48C159D0530F4249FE00161
:100910001124C054DB4F6C01311121C0209719F70D
:10092000C0ECD4E085E0D82E8C8128813981EA8022
:10093000FB808823D9F0E20EF31E8D9DE001112487
:10094000C054DB4F68817981E616F70669F34A8166
:100950005B81C7010E94E303F982E882E5CF349FFF
:10096000F0011124E054FB4F232F9FCF8091C0044E
:100970009091C104821B930B8E199F098150984E50
:100980008017910708F0AFCF80E0DF91CF911F91E2
:100990000F91FF90EF90DF90CF90089528813981DB
:1009A0004A815B81240F351F3183208313830283A7
:1009B0009C8194838C83E9CF0F931F93DB01E42FF9
:1009C000A80190E0EF3FE1F065E0E69FF00111241F
:1009D000E054FB4F60817181620F731F01C078503A
:1009E00025E0289FF001299FF00D1124E054FB4FD2
:1009F000808191818A0F9B1F1F910F910C94E303BB
:100A00006091CB057091CC05620F731F6115E8E012
:100A10007E0728F7EBECF5E0DDCFCF92DF92EF9287
:100A2000FF920F931F93CF93DF936B018A0179019C
:100A300095E0899FE0011124C054DB4F68817981E2
:100A40006C0D7D1D82E00E94E1020A80DB81C02DD9
:100A5000CC19DD09EC16FD0608F4E70160E08AE038
:100A60000E94A6008AE70E94A2027801EC0EFD1EF9
:100A7000E016F10631F0F80181918F010E94A20287
:100A8000F7CF61E08AE00E94A600CE01DF91CF910E
:100A90001F910F91FF90EF90DF90CF900895DC01B0
:100AA0001C96ED91FC91309731F0868197819827C3
:100AB00089279827089590E080E00895CF93DF93E9
:100AC000FC01EB01AC85BD851097A9F012969C91B5
:100AD000129713968C9113973C9111962C914DE798
:100AE00051E0518340833283238394838583CF01F4
:100AF000DF91CF9108958DE791E0918380831282F9
:100B0000138214821582F3CFCF93DF931F92CDB758
:100B1000DEB7DC01ED91FC91048CF58DE02D41E018
:100B200050E0BE016F5F7F4F09951816190634F427
:100B3000898190E00F90DF91CF9108958FEF9FEF23
:100B4000F9CFCF93DF93EC018A89882379F09A015A
:100B5000AB016E857F850E940D052E853F85280F90
:100B6000391F3F872E87DF91CF91089590E080E075
:100B7000FACFCF93DF931F92CDB7DEB76983DC0145
:100B8000ED91FC910280F381E02D41E050E0BE0147
:100B90006F5F7F4F09950F90DF91CF91089580E0AF
:100BA0000895CF93DF931F92CDB7DEB76983DC0141
:100BB000ED91FC910280F381E02D41E050E0BE0117
:100BC0006F5F7F4F09950F90DF91CF910895762742
:100BD00067277627DC0115967C936E931497ED9129
:100BE000FC910084F185E02D0994089590E080E067
:100BF0000895FB0141505109460F571FE417F507AF
:100C000078F4208130E0322F22276181260F311DB8
:100C1000820F931F8217930708F401963296EECF46
:100C2000E417F50751F4208130E0322F2227820F9C
:100C3000931F8217930708F401960895CF92DF92CD
:100C4000EF92FF920F931F93CF93DF93C82FE09003
:100C50000703F12CFE2CEE24409108034451550B60
:100C6000E40EF51E48E050E061E173E0C7018C0F2F
:100C7000911D0E94F90508E0C13129F0009125037A
:100C8000069506950C7310E0A80169E173E00E94D7
:100C9000F905EC010E151F0508F049C0A701401B1E
:100CA000510B8091D60262E270E081FF02C063E2E4
:100CB00070E0600F711F8091D7020E94F7020197C8
:100CC0007C0160E08AE00E94A6008AE30E94A20202
:100CD000D12CC12CCE14DF04B8F480E00E94A20213
:100CE000082F10E0102F002780E00E94A202800F42
:100CF000912F911DC80FD91FC817D90708F4219645
:100D000082E0C80ED11CE6CFEC14FD0461F480E053
:100D10000E94A20290E0982F8827C80FD91FC817F9
:100D2000D90708F4219661E08AE00E94A6009C2F72
:100D30008D2FCD2B11F48FEF9FEFDF91CF911F916E
:100D40000F91FF90EF90DF90CF90089544E150E035
:100D500065E073E090E080E00E94F905009721F0E3
:100D600098278927982708958FEF9FEF0895FF927E
:100D70000F931F93CF93DF93C091D602C1FF66C03C
:100D80002091D40230E047EF52E061E070E08091C2
:100D9000D7020E940D05CD7FC093D602F090D702F6
:100DA0008091D105882309F444C085E0F89EF001C4
:100DB0001124E054FB4F00811181C281D381C00F07
:100DC000D11F60E0C8010E94B703B80184E00E940F
:100DD000E102BE016850710986E00E94E1021AE05A
:100DE000249740E86FE180E80E94A90240E86FE1A3
:100DF00080EA0E94A9024AE06CE180EA0E94A9020E
:100E000048E06FE180E80E94A9028CE10E94910312
:100E1000082F8A70D1F348E06FE180EA0E94A902AE
:100E200001FF2DC0CE010E94CC0385FF02C01150EE
:100E3000C1F6C0E08F2D0E9469021092D7028C2F5C
:100E4000DF91CF911F910F91FF900895C091EF0214
:100E5000D091F002CE01089621F41092D702C0E0A2
:100E6000EECF0E943D048093D7028823C1F39E01F8
:100E700047EF52E061E070E00E940D058FCFC1E0C6
:100E8000D9CF0F931F93CF93DF93EC018C010B5FAE
:100E90001F4F89910E946902FE0131971082C0178D
:100EA000D107B9F7DF91CF911F910F910895CF939B
:100EB000DF93EC0188810E946902FE01CE01049655
:100EC00021812193E817F907D9F71C82DF91CF918F
:100ED0000895CF93DF93EC01E881F981008CF18DC7
:100EE000E02D0995882339F08C859D850296DF9148
:100EF000CF910C944107DF91CF9108950F931F93E9
:100F0000CF93DF931F92CDB7DEB78C01DC01ED915B
:100F1000FC91008CF18DE02D09958823B1F0D8016A
:100F20001C96ED91FC918281882379F041E050E09C
:100F3000BE016F5F7F4F0E942D03898190E00F906B
:100F4000DF91CF911F910F9108958FEF9FEFF7CF12
:100F5000CF93DF931F92CDB7DEB7DC01ED91FC910B
:100F60000288F389E02D41E050E0BE016F5F7F4FC2
:100F700009951816190634F4898190E00F90DF91D5
:100F8000CF9108958FEF9FEFF9CF6F927F928F925D
:100F90009F92AF92BF92CF92DF92EF92FF920F9308
:100FA0001F93CF93DF938C014B01EA01DC01ED919C
:100FB000FC91008CF18DE02D0995882309F47BC00C
:100FC000D8011C96ED91FC918281882309F476C0AA
:100FD0007E018EE1682EBE016E197F09680D791DB4
:100FE000D8011C96ED91FC91A70182810E942D03EE
:100FF0006C01F801A484B584D50112967C90872DEC
:101000000E948902C816D906E9F5EC18FD08C50149
:1010100002960E945707F801A485B585EC916E9E53
:10102000F0011124E15CFB4F818D84FF09C0119612
:101030008C911197982F967019F4886011968C9363
:10104000D8011C96ED91FC911D97828181112EC0D3
:10105000818182FF05C011821D961C921E921C97F1
:10106000CE018E199F09DF91CF911F910F91FF90B3
:10107000EF90DF90CF90BF90AF909F908F907F9038
:101080006F900895B5E07B9EF0011124E054FB4F72
:10109000808191818C0D9D1D9183808382819381BC
:1010A0008C199D0993838283CE01DDCFE114F10475
:1010B00009F091CFF9CF8FEF9FEFD5CF90E080E08F
:1010C000D2CFEF92FF920F931F93CF93DF93EC0158
:1010D000E881F981008CF18DE02D09958823E1F0FC
:1010E0000C851D85780182E0E80EF11C095F1F4F19
:1010F000D0E0C0E0F70181917F010E948902C80F12
:10110000D91FE016F106B1F7CE01DF91CF911F9103
:101110000F91FF90EF900895D0E0C0E0F5CFFC0173
:10112000448555854115510551F0FB0124853585D0
:101130002115310521F081E04217530709F080E0C5
:101140000895DC011C96ED91FC91309731F082817D
:10115000811105C081818170089580E0089581E04A
:101160000895DC01ED91FC91028CF38DE02D099541
:1011700091E089270895DC01ED91FC91048CF58DB7
:10118000E02D0994CF92DF92EF92FF920F931F937D
:10119000CF93DF93CDB7DEB7C254D1090FB6F89421
:1011A000DEBF0FBECDBFFC0182819381A481B581DA
:1011B00023968CAF9DAFAEAFBFAF239721E02396B0
:1011C0002FAF239723964CAD5DAD6EAD7FAD2397CA
:1011D0004BAB5CAB6DAB7EAB89AF9AAFABAFBCAF8B
:1011E0008DA79EA7AFA7B8AB28AB4DA55EA56FA5F1
:1011F00078A94FA358A769A77AA72EAB4BA95CA9DA
:101200006DA97EA949A35AA36BA37CA38B8F9C8F46
:10121000AD8FBE8F2AA74FA158A569A57AA54D8B82
:101220005E8B6F8B788F2CA349A15AA16BA17CA1F7
:101230004F87588B698B7A8B89879A87AB87BC8756
:101240000E94490166507F4F8F4F9F4F6093D80592
:101250007093D9058093DA059093DB058091D105D1
:10126000811145C08AE00E94870061E08AE00E9407
:10127000A6001FB7F8948091D005811124C0EAE937
:10128000F0E08491EEEAF0E09491E82FF0E0EE0FC8
:10129000FF1FEA57FF4FA591B491EC91E92321F488
:1012A00061E08AE00E94A6008AE00E9487008CB577
:1012B00080618CBD8CB580648CBD8DE00E94870000
:1012C0008BE00E9487008091D0058F5F8093D005CE
:1012D0001FBF8CB58C7F8CBD8DB581608DBD82E7C5
:1012E0000E9491038F3F09F441C08093D105109271
:1012F000CC051092CB051092CE051092CD05E0ECF6
:10130000F4E089E091E0DF019C011D922150304022
:10131000E1F781E098E09093C1048093C0044FEF1F
:1013200060E08FEF0E94A90262E070E080E090E050
:101330000E94170162E370E080E090E00E941701D4
:101340001092CA051092C90500E110E06DE180E03D
:101350000E94730381110DC00150110951F06AE020
:1013600070E080E090E00E941701F0CF1092D1056C
:10137000BECF70E060E088E00E94E10270E060E0D3
:101380008CE00E94E1026FEF77E08AE00E94E102C8
:1013900061EB88E30E9466036FE370E388E20E94DA
:1013A000E10269EF77EF80E30E94E1026DE070E017
:1013B00080EC0E94E10242E362EC80E80E94A90214
:1013C00062E17CE086EC0E94E10262E184EC0E9432
:1013D00066036CED75E08AEC0E94E1026091010108
:1013E00084EE0E9466036091020185EE0E9466030E
:1013F0006091030182EE0E9466036091040183EE16
:101400000E9466036091050180EE0E946603609170
:10141000060181EE0E94660360E071E080E10E94B7
:101420009A038FE10E94C20240EC6BE180E80E94C7
:10143000A90244E06FE180E80E94A90266E774E037
:1014400084E10E949A03809101018093D2058091EA
:1014500002018093D305809103018093D40580918C
:1014600004018093D505809105018093D605809174
:1014700006018093D7051092B8041092B704109219
:10148000BA041092B9041092BC041092BB041092DA
:10149000BE041092BD04109258041092760410926B
:1014A00094041092B20480E094E090933E04809300
:1014B0003D0410921604109215041092210410920B
:1014C000200410922C0410922B04109237041092D6
:1014D000360484E08093BF04109210049BE024E063
:1014E00080911004883008F44CC04D895E898F8942
:1014F00021E02A8BCF84D888E988FA88CB82DC82E5
:10150000ED82FE826B857C85E985FA85F093B503D3
:10151000E093B4037093B7036093B6035093B103A1
:101520004093B00390E091609093B3038093B20333
:101530008FEF9FEF9093AD038093AC038FEF90E01C
:101540009093AF038093AE032E838B819C81AD81FA
:10155000BE818093DA069093DB06A093DC06B093FD
:10156000DD06CE5BDF4F0FB6F894DEBF0FBECDBFFA
:10157000DF91CF911F910F91FF90EF90DF90CF906F
:101580000895899FF0011124E854FC4FDF01322FA8
:101590001D923A95E9F78F5F80931004A1CF0F93C6
:1015A0001F93CF93DF93DC0120913D0430913E04E3
:1015B0002F5F3F4F21158DE7380710F020E030E115
:1015C000522F432FE1E1F4E0EF0180E08430A1F4F9
:1015D00030933E0420933D0430E020E02430310578
:1015E00099F484E08093BF04F0E0E0E0CF01DF9164
:1015F000CF911F910F9108950C811D818F5F2B96C4
:101600000417150719F7D4CFC481D581C9010196F4
:101610003B96CD2B09F52093BF048BE0829FF00110
:10162000839FF00D1124EF5EFB4F55834483778336
:101630006683109799F484E0DF011D928A95E9F79B
:101640008BE0829FD001839FB00D1124AF5EBB4F12
:1016500080E418968C93CACF9C01C0CF8D919C9149
:1016600011979183808312968D919C9193838283AD
:10167000E7CF0F931F93CF93DF93EC018B018C8502
:101680009D85892B41F470E060E090E080E00E944D
:10169000CF0A9D878C87EC85FD8580E0309749F0E7
:1016A000102701271027158304832E96D287C18720
:1016B00081E0DF91CF911F910F910895CF93DF9338
:1016C000DC011C96ED91FC913097B1F0EC01158294
:1016D0001482128611861D861C8689890E946902E1
:1016E00088890E9469028A890E9469022E9686E092
:1016F000FE0111928A95E9F7DF91CF910895FC01DF
:101700001382128288EE93E0A0E0B0E08483958398
:10171000A683B7838BE091E091838083158614863E
:101720003E9686E0DF011D928A95E9F70895FB0158
:1017300001900020E9F73197AF01461B570BDC0100
:10174000ED91FC910280F381E02D09948F929F929C
:10175000AF92BF92EF92FF920F931F93CF93DF93BD
:10176000CDB7DEB7A1970FB6F894DEBF0FBECDBFE1
:101770007C01FA01CB0119A2223008F42AE08E0183
:101780000F5D1F4F822E912CB12CA12CBF01A50102
:1017900094010E94E723F901CA016A300CF5605DEB
:1017A000D8016E938D01232B242B252B79F790E004
:1017B00080E0109721F0BD01C7010E94970BA19610
:1017C0000FB6F894DEBF0FBECDBFDF91CF911F9152
:1017D0000F91FF90EF90BF90AF909F908F900895E2
:1017E000695CDECF0F931F93CF93DF93EC010E94D0
:1017F000970B8C016FE771E0CE010E94970B800F71
:10180000911FDF91CF911F910F9108952F923F92D9
:101810004F925F926F927F928F929F92AF92BF9200
:10182000CF92DF92EF92FF921F93CF93DF93EC0161
:101830006A017B01722EAB019601CB01B6010E94B9
:10184000402662E871E0811126C046015701E89404
:10185000B7F82FEF3FEF4FE75FE7C501B4010E94F4
:10186000402681110CC02FEF3FEF4FE75FE7C50126
:10187000B4010E94762466E871E0181664F02FEF38
:101880003FEF4FE75FE4C701B6010E94CE2518166F
:10189000B4F46AE871E0CE01DF91CF911F91FF901F
:1018A000EF90DF90CF90BF90AF909F908F907F9000
:1018B0006F905F904F903F902F900C94970B2FEF6D
:1018C0003FEF4FE75FECC701B6010E94762487FD2A
:1018D000E0CF20E030E0A901C701B6010E947624E4
:1018E000312C212C87FF09C06DE2CE010E945501E9
:1018F0001C01F7FAF094F7F8F09410E060E070E063
:1019000080E09FE3711641F020E030E040E251E4D6
:101910000E947B241F5FF6CFA70196010E940A2434
:101920002B013C010E94ED244B015C012AE0BC012B
:10193000A401CE010E94A60B7C01E20CF31C112332
:10194000C1F1C501B4010E941C259B01AC01C3017A
:10195000B2010E9409244B015C016EE2CE010E949B
:101960005501E80EF91E115020F120E030E040E270
:1019700051E4C501B4010E94D3252B013C010E9412
:10198000ED244B01B12CA12C2AE0B501A401CE011C
:101990000E94A60BE80EF91EC501B4010E941C2589
:1019A0009B01AC01C301B2010E9409244B015C01FF
:1019B000DACFC701DF91CF911F91FF90EF90DF90B9
:1019C000CF90BF90AF909F908F907F906F905F90DF
:1019D0004F903F902F9008958F929F92AF92BF9219
:1019E000CF92DF92EF92FF920F931F93CF93DF93EB
:1019F0007C018B016C0182E0C80ED11C4701E5E03F
:101A00008E0E911CD0E0C0E0F60141916F0150E0D4
:101A100070E060E02AE0C8010E94A60B5C016EE263
:101A2000C8010E9455018A0D9B1DC80FD91FC814FB
:101A3000D90451F7F701458150E070E060E02AE0F9
:101A4000C8010E94A60B8C0F9D1FDF91CF911F91A3
:101A50000F91FF90EF90DF90CF90BF90AF909F904D
:101A60008F900895EF92FF920F931F93CF93DF9380
:101A7000FC0110921004C8EBD3E0DE0130E020E05E
:101A80002830310569F490E0983009F042C0109296
:101A9000EE021092ED021092100428EB33E044C0E5
:101AA000CD01885B93400D911C9111970115110593
:101AB00061F112964D915C9113974115510529F1F1
:101AC000E080F1800E151F0501F50281138140179A
:101AD0005107D9F420931004DC01A454BC4F86E0D4
:101AE000FB0101900D928A95E1F78BE0829FF00156
:101AF000839FF00D1124E854FC4F1286DF91CF91A3
:101B00001F910F91FF90EF9008952F5F3F4F1B960D
:101B1000B7CF9E0148815981452BB1F44A815B8141
:101B2000452B91F49093100484E0D90101900D921B
:101B30008A95E1F7D901149686E0FB0101900D9298
:101B40008A95E1F7F901D9CF9F5F2B969DCFEF9250
:101B5000FF920F931F93CF93DF9300D000D000D05C
:101B6000CDB7DEB740911503509116034F3F540790
:101B700031F48091170390911803019619F1809127
:101B8000B4039091B5036091AC037091AD039B01D8
:101B900020953095282B392B42175307A9F5209112
:101BA000AE033091AF0320953095E091B603F091EC
:101BB000B7032E2B3F2BE0911703F0911803E21788
:101BC000F30711F586E0EFE2F1E0A7EFB2E0019054
:101BD0000D928A95E1F786E0E2EDF5E0ADEFB2E037
:101BE00001900D928A95E1F788E090E090930403CC
:101BF000809303038091EF029091F0020E969093F0
:101C0000F0028093EF02A5C08427952786239723AF
:101C1000892B99F420911703309118038091B60312
:101C20009091B703822793276091AE037091AF0321
:101C300086239723892B09F499C08091B003909152
:101C4000B1039093F4028093F3028091B2039091D8
:101C5000B3039093F6028093F502E090F302F090C4
:101C6000F4020091F5021091F602E8EBF3E080E057
:101C7000883009F084C08093100446E050E06FEF94
:101C800070E087EF92E00E94542686E0E7E1F3E0FF
:101C9000DF01282F1D922A95E9F7E2EDF5E0ADEF7F
:101CA000B2E0982F01900D929A95E1F7E2EDF5E000
:101CB000ADE0B3E0982F01900D929A95E1F7F09284
:101CC0001E03E0921D031093200300931F03209135
:101CD000B4033091B5033093140320931303209180
:101CE000B6033091B703309316032093150320E019
:101CF00031E030930C0320930B03309306032093C1
:101D0000050328E030E03093080320930703809315
:101D1000090394E090930A0328E036E0309304032B
:101D2000209303032DE233E03093F2022093F1027B
:101D30002AE230E03093F0022093EF02BE016F5FA1
:101D40007F4FDB011D928A95E9F783EF92E00E94B5
:101D5000320D26960FB6F894DEBF0FBECDBFDF91D1
:101D6000CF911F910F91FF90EF9008955093F4023F
:101D70004093F3023093F6022093F5026ECF208158
:101D80003181E216F306E1F4228133810217130751
:101D9000B9F49481911103C09581992329F080931E
:101DA0001004349686E011CF96819111F8CF978177
:101DB0009111F5CF90859111F2CF91859111EFCFCF
:101DC0008F5F3B9655CFCF93DF93EC010E94A70D19
:101DD0008091EF029091F0028A9759F41092D70205
:101DE0008091D6028D7F8093D602DF91CF910C94A3
:101DF000B7060E94B7061D821C82DF91CF9108951D
:101E00009C01AB017093EC026093EB02161617066F
:101E100054F48091E9029091EA028217930719F035
:101E2000B9010C944B260895EF92FF920F931F93E4
:101E3000CF93DF93E091E002F091E102C185D2857A
:101E4000209709F456C0E090E602E1FE1FC08A81A7
:101E500081111CC08091190390911A039783868386
:101E600080911103909112039183808380911303D9
:101E7000909114039383828380911D0390911E039C
:101E8000982789279827089709F51A82E3FE31C019
:101E90008D81882371F18C818093D7028091D60245
:101EA00082608093D6028AE28093D402688179812D
:101EB0006B5271098091F1029091F202DF91CF9102
:101EC0001F910F91FF90EF900C94000F0E943D0422
:101ED000F82E8A838823D1F20E9489028C012AE29B
:101EE00030E04091D50270E060E08F2D0E94DC046C
:101EF000CDCFDF91CF911F910F91FF90EF9008957B
:101F0000AF92BF92CF92DF92EF92FF920F931F9307
:101F1000CF93DF93E090E702F090E802F701C48DE1
:101F2000D58DD090E602209761F5D6FC03C0F12C48
:101F3000E12CC1C0EBE5F3E090E080E021812111CC
:101F40007CC022E1289FE001299FD00D1124C55AB1
:101F5000DC4FFE0111922A95E9F7C7018F53944097
:101F6000959587954FEE5EEE849F9001859F300D8D
:101F7000949F300D1124288381E08983F701D58F48
:101F8000C48FD1FE32C00091EF021091F002011512
:101F9000110559F189818823A9F181FD26C05E01CF
:101FA000F2E0AF0EB11CC12CF50181915F018111EE
:101FB0004BC0C8010E943D04F501319780838823FE
:101FC00009F442C02091F1023091F202275F3240C1
:101FD0004091D50270E060E00E94DC04F4E0CF1292
:101FE00004C0F701818D8061818F898183FF0AC0E0
:101FF000877F89838D2D82608093E602F701818D32
:102000008F7E818F8091E60284FD04C087FD02C02F
:1020100085FF26C0CE0107960E9441078A8188234A
:10202000E9F0F7018481958198878F8389818460A5
:102030008983F701158E148E7ACF019672968430BB
:10204000910509F07BCF73CFC394F5E0CF12ACCFED
:102050008091D6028E7F8093D602C3CF1982E9CFBA
:1020600080FF3FC0CE0107960E9457078F818823CB
:10207000D1F19885911145C0EC84FD84E114F104FF
:1020800009F455CF95E0899FF0011124E054FB4FEE
:10209000F382E2820091F1021091F202075F124096
:1020A0000093D4021127C80108968E0D9F1D00973A
:1020B00079F51092D702B7018091F1029091F20266
:1020C0000E94000FF092F002E092EF02DF91CF91B8
:1020D0001F910F91FF90EF90DF90CF90BF90AF9046
:1020E00008958C7019F6898181FF21CF8F8181112C
:1020F00024C01982F701158E148E80E18093E602C8
:1021000016CF0E9489027C01892B09F410CFC2CF1F
:102110000E943D048093D702882369F2B8016F5F63
:102120007F4F870130E020E04F810E94DC048091E6
:10213000D60282608093D602BECFF701818D806186
:10214000818FF5CEAF92BF92CF92DF92EF92FF9246
:102150001F93CF93DF93843009F458C1C091E702F5
:10216000D091E8022DE233E03093F2022093F102A5
:102170003093EA022093E9028330C9F4898D8F708D
:10218000833009F044C088899989892B09F03FC0C0
:1021900088E08093E6020E94800F8091E60285FF2E
:1021A00013C61092EC021092EB02198E51C08230CD
:1021B00009F005C18091E5028F5F8093E5028111EE
:1021C00013C08091E4028F5F8093E40281110CC000
:1021D0008091E3028F5F8093E302811105C08091BB
:1021E000E2028F5F8093E2021092F0021092EF02FF
:1021F0001092EC021092EB02898D982F9D7F953002
:1022000059F48A8D8F5F8A8F883709F4198E10925E
:10221000F0021092EF0231C28823C9F3288939896C
:10222000232B09F4C7C09A8D2FEF290F2A8F911104
:10223000EECF9B8D983031F02FEF280F223050F4E5
:10224000953041F4198E80E88093E6020E94800F59
:1022500084E184C0392F953008F034E023E001C0D8
:10226000220F3A95EAF72A8F9F5F9B8F8F708330FA
:1022700009F47DC008F06AC0813009F406C48230D8
:1022800031F6109226038091260382608093260304
:1022900082E080932D0394E090932E0380932F038C
:1022A000109230038CE290E09093F0028093EF0262
:1022B00080E6809325038885809321038985809318
:1022C00022038A85809323038B85809324038C8546
:1022D00080931D038D8580931E038E8580931F033D
:1022E0008F858093200386E080930E038C819D81EF
:1022F00090931A03809319038E819F8190931C03FE
:1023000080931B038091B4039091B50390931203C3
:10231000809311038091B6039091B70390931403B7
:1023200080931303888199819093160380931503FA
:102330008A819B819093180380931703898D84FF72
:10234000C9C51092280310922703D5C2863029F000
:10235000883019F0843009F05ACF81E18093260348
:1023600088E290E09093F0028093EF0221C084E035
:102370008093E6020E94800F8091E9029091EA0228
:102380009093F2028093F1028091EB029091EC0223
:10239000892B09F44AC588899989009709F445C5AC
:1023A00088969093F0028093EF0288E18093260351
:1023B00080E57FCF8F70833009F029CFE9CE85305B
:1023C00009F0A9C0E091E002F091E10284819581D9
:1023D000892B09F41CCF1092E8021092E70281E2E7
:1023E00093E09093F2028093F1029093EA0280933B
:1023F000E9021092EC021092EB021092F00210929D
:10240000EF0288E08093E6020E94140F8091EB02B5
:102410009091EC02009709F4FACE9C01245E3F4FA4
:102420003093F0022093EF023093070320930803C8
:10243000E091E002F091E102208520930D0321E17B
:1024400020930E03089698278927982790931E03B8
:1024500080931D031092200310921F0384819581A5
:1024600090931A03809319038681978190931C039C
:1024700080931B038091B4039091B5039093120352
:10248000809311038091B6039091B7039093140346
:102490008093130380819181909316038093150399
:1024A0008281938190931803809317038DE293E0C8
:1024B0009093F2028093F10281E10E941E068095C2
:1024C0009095009709F45BC19093200380931F03BC
:1024D00085E4809305031092060310920C0310927A
:1024E0000B038091D8029091D90201969093D90262
:1024F0008093D8029093090380930A0310921003EB
:1025000010920F030E94A606809590959093100359
:1025100080930F03B2C080910503853409F077CE14
:10252000C0900703D12CDC2CCC2480910803C80E6A
:10253000D11C8091EF029091F0028C159D0508F45A
:1025400066CED092F002C092EF0280910B038F739F
:1025500009F05DCE10910C03111159CEA090B40377
:10256000B090B503A114B10439F48091B6039091F1
:10257000B703892B09F441C020911503309116034C
:1025800080910E03813149F52F3F320739F4809154
:10259000170390911803019609F47DC08091AC0354
:1025A0009091AD03809590958A299B298217930776
:1025B000A1F48091AE039091AF03809590954091E6
:1025C000B6035091B703842B952B4091170350917C
:1025D00018034817590709F45EC0A216B30609F09C
:1025E00016CE20911703309118038091B603909175
:1025F000B7032817390709F00ACE0E94A6060196EC
:1026000009F005CE80910E03863009F4BBC08131FC
:1026100009F441C0813009F0FACD80911903883066
:1026200009F0F5CD1092190380911B0390911C03C2
:10263000873F4FEF940768F1099690931C038093AE
:102640001B038091110390911203909316038093C2
:1026500015038091130390911403909318038093B2
:102660001703B0921203A09211038091B6039091C8
:10267000B70390931403809313031092E602DF9143
:10268000CF911F91FF90EF90DF90CF90BF90AF90D0
:1026900008950896D2CF8CE1C81AD108D092F002E2
:1026A000C092EF0281E293E09093F2028093F102F4
:1026B00080911F0390912003892BE1F440911B032B
:1026C00050911C036091190370911A03A09111039A
:1026D000B0911203C0911303D0911403E1E1F4E02F
:1026E0002DE334E02E173F0761F43093E10220938D
:1026F000E0028DCD81E10E941E06019609F087CD92
:10270000DDCF848195810097C1F184179507A9F5E4
:1027100086819781009719F08617970771F5808158
:1027200091810097D1F4E280F380EF28F1F4F093E7
:10273000E102E093E0021092E8021092E70282E0E8
:102740008093E60281E293E09093EA028093E902AB
:102750001092EC021092EB0257CE8F3F980729F4AB
:10276000E280F380EF20E09411F38A179B0729F4AD
:1027700082819381C817D907D1F23B96B3CF8FEFEF
:102780009FEFA2CE86E00E941E06019609F03FCD83
:1027900040911B0350911C036091190370911A031F
:1027A0008091110390911203E0911303F0911403AF
:1027B000CFE3D4E0298D2223A9F0AC81BD814A1753
:1027C0005B0781F4AE81BF816A177B0759F4A8814A
:1027D000B9818A179B0731F4AA81BB81EA17FB07ED
:1027E00009F45BC16E9624E0C939D20719F310F3DE
:1027F000809126038F73823061F45093DF024093FF
:10280000DE02E7EBF4E080E0843009F091C08093D1
:10281000BF048091260382FDFACC84E180932603D5
:1028200088E290E09093F0028093EF0280E580933D
:10283000250330912003809124038093200320916D
:102840001F038091230380931F0320932303909100
:102850001E038091220380931E0390932203809194
:102860001D038093BF044091210340931D03809377
:1028700021033F5F3093240331110DC02F5F20935C
:102880002303211108C09F5F90932203911103C07D
:102890008F5F809321038091190390911A03909385
:1028A000DF028093DE0220911B0330911C033093E2
:1028B0001A032093190390931C0380931B038091A8
:1028C0001103909112039093160380931503809146
:1028D0001303909114039093180380931703B092FD
:1028E0001203A09211038091B6039091B7039093C5
:1028F00014038093130380E480930D038091EF020F
:102900009091F002909307038093080310922C0398
:1029100010922B0310922A031092290386E00E9442
:102920001E068095909590932A0380932903D0CD1D
:10293000219131918F5F4217530709F065CF1092B3
:10294000BF04EFE3F4E090E080E0D0E0C0E084304A
:10295000910531F484E08093BF04209781F457CC33
:102960003E2F2F2FA18DA11163C08093BF042EE1B4
:10297000289FE001299FD00D1124C15CDB4FD0932B
:10298000E802C093E70283E08A8F888F1E8A84E082
:102990008F8B1B8E5D834C837F836E8380911103AD
:1029A000909112039983888380911303909114036B
:1029B0009B838A8381E0898F8091E2028C8780915A
:1029C000E3028D878091E4028E878091E5028F87F4
:1029D00081E090E0998B888B809120038B87809198
:1029E0001F038A8780911E03898780911D03888732
:1029F00081E090E00E94F92080912503982F907F3C
:102A0000913508F442C082958F708550990B880FDC
:102A1000991F880F991FE12FF0E0E817F9072CF4B0
:102A2000E950FD4F36A9311112C01093BF042DC0DB
:102A3000A73031F4209731F0B28DAA8DAB1710F08A
:102A40003C2F2D2F01967E96C32FD22F80CF313071
:102A500011F41F5FE0CF27A93230D9F42430C9F434
:102A60001093BF0480AD91AD892798278927909353
:102A7000DF028093DE02813042E0940710F080E0B4
:102A800092E09B8B8A8B9D8B8C8B80E180932603BD
:102A9000FACB222351F2120FBECFD093E802C0939B
:102AA000E7021092E6029091260392FF07C0198E6A
:102AB00080E28093E6020E94800FA9CB80912503DB
:102AC00082958F70880F880F8093BF04C81AD10831
:102AD000760184E1E81AF108F092F002E092EF0248
:102AE0002F70223021F4892F8F738231D1F0E114BD
:102AF000F10419F4892F8370A1F039852A858B851B
:102B000050911D0348855413C0C140911E034313C7
:102B1000BCC130911F033213B8C120912003281388
:102B2000B4C194FF49C0688979896115710509F4B8
:102B300043C0CE010C960E94C620309121038091A3
:102B4000DA02381339C0209122038091DB02281366
:102B500033C0909123038091DC0298132DC08091A3
:102B600024034091DD02841327C03C872D879E8774
:102B70008F87988D8B8D811118C08E892A8D921B1D
:102B8000282F269526952695921B890F8E8B97FDCB
:102B900091952F89322F36953695231B920F9F8B57
:102BA000869586958695890F888F81E08093E602C9
:102BB000888D8A8F198A188A298DE22FEF70E1504B
:102BC000E83008F024CBF0E0E851FA4E0C944526AA
:102BD000F015091673162817511762174517211794
:102BE0008091E60280FF13CB83E0898F80E480939D
:102BF000E602198A188AE114F10431F082E4809324
:102C0000E602C7010E94F9201092EC021092EB023A
:102C1000C2CA8091E60280FF5FC0809126038F7355
:102C2000823109F059C080912503982F907F91350A
:102C300098F182958F708550990B880F991F880F96
:102C4000991FE12FF0E0E817F9072CF4E950FD4F48
:102C500036A9311103C01093BF041EC0313011F4E6
:102C60001F5FEFCF27A9323099F5243089F51093F3
:102C7000BF0480AD91AD8927982789279093DF0203
:102C80008093DE02813012E0910710F080E092E044
:102C90009B8B8A8B9D8B8C8B83E0898F80911D030E
:102CA000888780911E03898780911F038A8780917E
:102CB00020038B8781E090E00E94F92082E48093DA
:102CC000E602198A188A1092F0021092EF029CCF45
:102CD000222309F2120FB5CF80E28093E6020E9410
:102CE000800F198E96CD8091260380FF20C024FD91
:102CF0001EC088899989892B09F089CAC601439722
:102D00000E94F9208091E602982F90619093E6024C
:102D1000EF2819F082618093E6020E94800F81E023
:102D200090E0998B888B88E0898F1B8E16CB85FF6E
:102D300014C080912B0390912C0398278927982702
:102D4000AC01435D5C4F5093F2024093F102E81AEC
:102D5000F90AF092F002E092EF024091EF025091F6
:102D6000F0029091E6024115510541F024FD06C0A4
:102D700092609093E602CA010E94F9208091270395
:102D8000282F30E0322F222780912803820F932FA3
:102D9000911D9093DF028093DE022C893D892817D4
:102DA000390710F0892B21F43093DF022093DE02E3
:102DB0008091DE029091DF029B8B8A8B8091E602EC
:102DC000837009F424CA20CF84FF0AC01092EC0259
:102DD0001092EB0281E090E0998B888B84E0A4CF85
:102DE0002091EB023091EC0221153105B9F080FF02
:102DF00002C0198A188A88899989009789F48A8972
:102E00009B898217930720F49093EC028093EB0246
:102E10008091EB029091EC02998B888B1B8EACCA4F
:102E20009093EC028093EB02F9CF8091E60281FF50
:102E3000EEC988E290E09093F0028093EF0280E187
:102E4000B5CA8091E60280FFE2C9198E80E131CED9
:102E5000E114F10419F0C7010E94F9208091E60203
:102E600081709091260390FF15C0882381F087E040
:102E7000898F1A8E198A188A81E090E00E94F920C1
:102E800080E18093E6020E94800F80E167CA86E0BD
:102E9000898FF2CF882399F085E0898F198A188A63
:102EA000B6C9E114F10419F0C7010E94F92080911C
:102EB000260380FF04C087E0898F1A8EDDCFEF28BC
:102EC00021F7A5C98091E60280FFA1C987E0898F1B
:102ED0001A8E9DC982E080932703109228030BCDA0
:102EE000CF93DF93EC012C853D852115310529F425
:102EF00090E080E0DF91CF910895EA89EE23C1F35D
:102F000081E08B8B85E0E89FF0011124E054FB4FBA
:102F10008E859F850796938382833093E102209369
:102F2000E00285E00E94A2108091EF029091F002F1
:102F3000892BF1F2CE010E960E94E30E81E090E023
:102F4000D9CF8F929F92AF92BF92CF92DF92EF92A2
:102F5000FF92CF93DF938091D105882309F41FC19D
:102F6000D091D502D11151C089E30E9491038823E9
:102F700009F449C06091C9057091CA056B0126E04A
:102F8000C20ED11CC11438E0D30628F06B014AEF01
:102F9000C41A47E0D40A80E00E94E10260E08AE3BC
:102FA0000E947303E82E60E08AE30E947303F82E08
:102FB000F092CA05E092C90560E08AE30E947303BB
:102FC000B82E60E08AE30E947303C82F60E08AE3B2
:102FD0000E947303A82E40E46EE180E80E94A902DB
:102FE000A7FEE8C0E11458E0F50608F0E3C0D0926F
:102FF000CC05C092CB059C2F8B2D04979093CE05CA
:103000008093CD05DFEFD093D502F090D502FF205D
:1030100009F472C081E08093D6028F2D0E9489024C
:10302000EC019093F0028093EF02892B09F4EFC03A
:1030300042E650E067EF72E08F2D0E942D03C090B2
:103040000303D090040388E0C816D10409F0CDC072
:10305000F092D7022E97D093F002C093EF02209106
:10306000110330911203E091B403F091B503C9014B
:103070008E279F274091AC035091AD038423952365
:10308000892B49F540911303509114036091B603C5
:103090007091B703CA0186279727A091AE03B0911C
:1030A000AF038A239B23892BB1F480911503909160
:1030B0001603E817F90709F080C080911703909173
:1030C00018036817790709F078C06DEF72E081E1A5
:1030D00093E00E94320D81E00E94A2108091EF02E5
:1030E0009091F002892B21F00E94A70D0E94B70653
:1030F0008091D60280FD8BC00E9449016B017C014A
:103100008091D8059091D905A091DA05B091DB05A1
:1031100046015701881A990AAA0ABB0ACFE3D4E0EC
:10312000D093E802C093E702B7FC08C182E00E9496
:10313000A2108091EF029091F002892B21F00E9461
:10314000A70D0E94B7066E9634E0C73BD30741F740
:10315000B7FC25C04AEFC40ED11CE11CF11CC09283
:10316000D805D092D905E092DA05F092DB05C1E1ED
:10317000D4E0D093E102C093E00285E00E94A21067
:103180008091EF029091F002892B21F089859A8538
:103190000E94E30E2B9654E0CD33D50751F7DF9113
:1031A000CF91FF90EF90DF90CF90BF90AF909F9026
:1031B0008F9008950E94570326CFE8EBF3E080E05C
:1031C000883019F48093100486CF608171812617AE
:1031D000370741F4628173814617570719F48093CA
:1031E000100473CF8F5F3B96EBCF28E0C21626E02A
:1031F000D20669F41092F0021092EF02AA9760F4DE
:103200008091EF029091F002892B09F06FCF0E941C
:1032100057031092D50270CF80910B0390910C034D
:10322000811531E0930701F18115924049F7209112
:103230001D0330911E038091B4039091B5032817AC
:103240003907F1F620911F03309120038091B603D6
:103250009091B7032817390799F66DE073E083E181
:1032600093E00E94320DCCCFE0901D03F0901E033E
:103270008091B4039091B503E816F90609F6C09160
:103280001F03D09120038091B6039091B703C81714
:10329000D90709F0B5CF6DE073E083E193E00E94B8
:1032A000320D80E092E090930C0380930B0386E054
:1032B000EDE0F3E0A7E1B3E001900D928A95E1F72C
:1032C00086E0E2EDF5E0ADE0B3E001900D928A9585
:1032D000E1F786E0E2EDF5E0ADEFB2E001900D92AE
:1032E0008A95E1F786E0E7E1F3E0A7EFB2E001902D
:1032F0000D928A95E1F780911303909114039093B6
:103300001E0380931D0380911503909116039093E3
:10331000200380931F03F0921403E0921303D093D1
:103320001603C0931503D0920403C09203038AE2EC
:1033300090E09093F0028093EF0262CFEC8DFD8DD0
:10334000309709F400CF86859785A089B189A701B8
:103350009601281B390B4A0B5B0BDA01C901B7FD3B
:10336000F2CE83E00E94A2100E944901E091E702A0
:10337000F091E802048CF58DE02D665F7F4F8F4F52
:103380009F4F66877787808B918BD3CECF93DF93C8
:10339000EC010E94A11789890E946902198ADF91B4
:1033A000CF9108950F931F93CF93DF931F92CDB7C3
:1033B000DEB78C010E94A117F8018189882389F06A
:1033C00041E050E0BE016F5F7F4F0E942D030197E7
:1033D00041F4898190E00F90DF91CF911F910F917F
:1033E00008958FEF9FEFF7CFEF92FF920F931F9308
:1033F000CF93DF937C018B01EA010E94A117F701B3
:103400008189882369F1AE01B8010E942D038C01E6
:10341000F701C1898C2F0E9489028017910769F4F6
:103420008C2F0E946902F701118AC801DF91CF91A8
:103430001F910F91FF90EF90089585E0C89FF001D4
:103440001124E054FB4F80819181800F911F918363
:10345000808382819381801B910B93838283E5CF4C
:1034600080E090E0E3CFCF93DF93EC010E94A117BF
:103470008989DF91CF910C948902CF93DF93EC017E
:103480000E94A117898981110E9469028889898B0C
:10349000188ADF91CF910C948902CF92DF92EF923C
:1034A000FF920F931F93CF93DF9300D000D0CDB73F
:1034B000DEB78C017B016A010E94A117D701129629
:1034C0008C91129781110EC013968C9113978111D4
:1034D00009C014968C911497811104C015968C9193
:1034E0008823E9F0C114D104D1F0D8011C96ED91E4
:1034F000FC91D70112962D913C9113973A83298321
:1035000014968D919C919C838B837C2D6D2D30978F
:1035100079F1778366833183208393838283F801F3
:1035200084859585892BB1F18289811133C08EE024
:1035300096E00E943D04D80152968C9352972BE25C
:1035400030E01F963C932E931E9721E090E081116E
:1035500001C020E0822F0F900F900F900F90DF910D
:10356000CF911F910F91FF90EF90DF90CF90089532
:10357000CE0101960E94CF0AF801958784870097B3
:1035800049F09801225F3F4FDC011A963C932E933D
:103590001997C5CF80E090E0DECF4F925F926F9297
:1035A0007F928F929F92AF92BF92CF92DF92EF92D3
:1035B000FF920F931F93CF93DF93CDB7DEB763973F
:1035C0000FB6F894DEBF0FBECDBF6C017B013A0190
:1035D000FB01DB018D91882309F444C08E32D1F3C5
:1035E00080538A30B8F3F60142815381648175813A
:1035F0008091EC069091ED06A091EE06B091EF0659
:10360000481759076A077B0709F455C28601085F06
:103610001F4F0E9449016F7077277C5FC8010E948D
:10362000390B813009F04CC28DE791E09A83898390
:10363000F60182819381A481B5818B839C83AD83C4
:10364000BE8345E350E0BE016F5F7F4FC8010E941B
:103650004D1A892B09F057C0F12CE12CC8010E94AA
:103660005E0B39C030E020E090E080E05AE041910C
:10367000442309F1843091050CF0B5CF4E3271F43A
:103680002F3F310511F00CF0AECFD301A80FB91FB9
:1036900012962C93019630E020E0E9CF529FB001C2
:1036A000539F700D1124242F440F330B20533109E5
:1036B000260F371FDCCF2F3F310511F00CF093CFD1
:1036C000843091050CF08FCF680E791EF3012283B0
:1036D000EE24E394F12CC70163960FB6F894DEBF95
:1036E0000FBECDBFDF91CF911F910F91FF90EF9053
:1036F000DF90CF90BF90AF909F908F907F906F9012
:103700005F904F9008950E944901F6017783668388
:1037100042E050E0B6016A5F7F4FC8010E94A105F8
:1037200081E090E09A83898342E050E0BE016F5FC0
:103730007F4FC8010E94A10580E091E09A838983B0
:1037400042E050E0BE016F5F7F4FC8010E94A105BB
:103750001A82198242E050E0BE016F5F7F4FC801BC
:103760000E94A10542E050E0BE016F5F7F4FC8019B
:103770000E94A10542E050E0BE016F5F7F4FC8018B
:103780000E94A1055701F7018081882301F175018D
:10379000F70181912F01882311F08E32B1F4470196
:1037A0008A189B081814190474F48D8641E050E0BF
:1037B000BE01635F7F4FC8010E94A105A401B5014E
:1037C000C8010E94A1055201DECF7201E1CF1D8622
:1037D00041E050E0BE01635F7F4FC8010E94A10538
:1037E000E12CFF24F394FA82E98242E050E0BE012A
:1037F0006F5F7F4FC8010E94A105FA82E98242E013
:1038000050E0BE016F5F7F4FC8010E94A105C80153
:103810000E947017892B09F41FCFA3E0AA2EB12CA8
:10382000230122E0420E511C26C0F6016280738003
:1038300084809580B801CE0101960E945E058B813F
:103840009C81AD81BE81681679068A069B0629F4A3
:10385000C8010E944F05C59759F1FEEFEF2EFF24D6
:10386000FA94E1E0AE1AB10809F4F8CEFFEFEF16D2
:10387000FF0609F0F3CE0E9449013B014C01C8014B
:103880000E943D1A1816190684F20E944901661911
:10389000770988099909693873418105910508F00C
:1038A00001C162E370E080E090E00E941701E7CF81
:1038B000C8010E94331A0C970CF4F8C04CE050E099
:1038C000BE016F5F7F4FC8010E94BB088B819C8146
:1038D0009827892798279A8B898BF60146815781EB
:1038E00029813A814217530711F497FD08C0C80196
:1038F0000E94C619ECEFEE2EFF24FA94B2CF8F701F
:103900009270892B41F0C8010E94C6197BEFE72E07
:10391000FF24FA94A6CF6F807884762467247624D7
:10392000F12CE12C61147104D1F4C8010E94C61974
:103930006AEFE62EFF24FA9494CF8D85811117C08B
:10394000C8010E948405C8010E948405C8010E9424
:103950008405C8010E948405FFEFEF1AFF0A8D81DC
:103960009E81982789279827E816F906A8F441E050
:1039700050E0BE01635F7F4FC8010E94BB088D8588
:103980008823D9F28D859FEF980F9D878823A9F210
:10399000C8010E948405F6CF912C812C41E050E0B3
:1039A000BE016D5E7F4FC8010E94BB088B89982FB6
:1039B000907C61F4882389F08B899FEF980F9B8B13
:1039C000882341F0C8010E948405F6CFC8010E94F7
:1039D00084051B8A8B898111E1CF42E050E0BE0152
:1039E000615F7F4FC8010E94BB0842E050E0BE010A
:1039F000635F7F4FC8010E94BB08C8010E94840515
:103A0000C8010E948405C8010E948405C8010E9463
:103A1000840542E050E0BE016F5E7F4FC8010E9406
:103A2000BB088F85988981159140E1F48D859E852D
:103A300081159140B9F489899A898115944041F0A2
:103A4000C8010E94C61957EFE52EFF24FA9409CF4A
:103A500044E050E0B201C8010E94BB08EE24E394A8
:103A6000F12CFFCEF12CE12C89899A89982789279E
:103A70009827E816F90638F4C8010E9484052FEF4C
:103A8000E21AF20AF1CF8FEF881A980A8614970487
:103A900009F084CFC8010E94C61936EFE32EFF2437
:103AA000FA94DFCEEE24EA94FE2CDBCE9DEFE92ED5
:103AB000FF24FA94D6CE8EEFE82EFF24FA940BCE94
:103AC000F12CE12C08CEAF92BF92CF92DF92EF9211
:103AD000FF920F931F93CF93DF93CDB7DEB7A897D5
:103AE0000FB6F894DEBF0FBECDBF7C015B016A014B
:103AF0000DE711E01A8309831B821C821D821E823E
:103B0000CE0109960E947F0B1CA30BA31DA21EA22F
:103B10001FA218A68091DA069091DB06A091DC0620
:103B2000B091DD068F8F98A3A9A3BAA38B839C8342
:103B3000AD83BE8318861F82AE014D5D5F4FB50118
:103B4000CE0101960E94CD1A81309105B1F4D701C2
:103B5000ED91FC910488F589E02D1E8F0D8F8DA1CC
:103B60009EA1AFA1B8A58F8F98A3A9A3BAA3A601C0
:103B7000BE01635E7F4FC7010995A8960FB6F89402
:103B8000DEBF0FBECDBFDF91CF911F910F91FF9090
:103B9000EF90DF90CF90BF90AF900895AF92BF921B
:103BA000CF92DF92EF92FF920F931F93CF93DF9309
:103BB000CDB7DEB7A8970FB6F894DEBF0FBECDBF66
:103BC0007C015B016A010DE711E01A8309831B8206
:103BD0001C821D821E82CE0109960E947F0B1CA3AF
:103BE0000BA31DA21EA21FA218A68091DA06909117
:103BF000DB06A091DC06B091DD068B839C83AD8350
:103C0000BE8318861F82AE014D5D5F4FB501CE01A8
:103C100001960E94CD1A81309105B1F4D701ED9142
:103C2000FC910684F785E02D1E8F0D8F8DA19EA13E
:103C3000AFA1B8A58F8F98A3A9A3BAA3A601BE016F
:103C4000635E7F4FC7010995A8960FB6F894DEBF53
:103C50000FBECDBFDF91CF911F910F91FF90EF90DD
:103C6000DF90CF90BF90AF900895CF93DF93EC019A
:103C70004C815D81A7EBB4E090E080E0282F843098
:103C8000910521F484E08093BF040EC0FC016D9186
:103C90007D910196672B91F72093BF04EE0FFF1FD4
:103CA000E954FB4F518340830E94A11781E08E832A
:103CB000DF91CF910895CF93DF93EC010E94A1177C
:103CC000EC85FD8587818823D9F0DF01189621E0F6
:103CD0008D91811110C0215030E0322F2227330FF7
:103CE00084859585280F391F80E09AE0821B930B0D
:103CF000DF91CF9108952F5F253051F724E0ECCF6D
:103D000080E09AE0F5CFAF92BF92CF92DF92EF9230
:103D1000FF920F931F93CF938C015B017A016A018D
:103D20000E94A1170115110509F45DC0F8018181F8
:103D3000882309F458C0867009F055C03896C1E050
:103D40008191811133C0C150F801EC0FF11D8781C1
:103D500081110DC080E092E00E943D04F801EC0F5B
:103D6000F11D87838823E1F2F80115861486A701E7
:103D70004C195D094A0D5B1DF80164857585960136
:103D8000EC0FF11D87810E940D05C81AD90AF801B0
:103D900024853585820F931F958784871C141D0405
:103DA00054F4C43009F4BCCFCF5FD4CFCF5FC5305B
:103DB00039F6C4E0C9CF0E944901665F7F4F8F4F3B
:103DC0009F4FF80166877787808B918BC7018C198D
:103DD0009D09CF911F910F91FF90EF90DF90CF90B1
:103DE000BF90AF90089590E080E0F3CF9F92AF92A4
:103DF000BF92CF92DF92EF92FF920F931F93CF93D8
:103E0000DF938C017B016A01CBE5D3E0B12CA12CBF
:103E10008EE1982E898180FF15C0E8819E9EF00179
:103E20001124E15CFB4F24813581F8018481958167
:103E30002817390739F4A601B701CE010E94831E65
:103E4000A80EB91E6296F3E0C33ADF0718F3C50166
:103E5000DF91CF911F910F91FF90EF90DF90CF9066
:103E6000BF90AF909F900895FC01848595850C9438
:103E7000831ECF93DF931F92CDB7DEB7698341E0F6
:103E800050E0BE016F5F7F4FFC01848595850E94E5
:103E9000831E0F90DF91CF910895CF93DF93EC01B4
:103EA0000E94A117EC85FD85309739F0818182FF52
:103EB00008C081E09281911101C080E0DF91CF9133
:103EC000089581E0FBCFCF93DF93EC018C859D8536
:103ED000009769F0FC012181222349F002960E949B
:103EE0004107EC85FD85818182FF07C011821D8617
:103EF0001C86DF91CF910C94A11782608183F7CF4C
:103F0000CF92DF92EF92FF920F931F93CF93DF93A5
:103F10008C01EB016A01DC01ED91FC910488F589CB
:103F2000E02D0995EA80FB806C817D815C2D4D2D13
:103F300080913D0490913E0401968115BDE79B0759
:103F400010F080E090E1382F292FEFE3F4E0DF015B
:103F5000C0E0C430D1F490933E0480933D041092AD
:103F6000BF0480E0D0E0C0E08430F1F48093BF046F
:103F7000209711F590E080E0DF91CF911F910F9194
:103F8000FF90EF90DF90CF9008955996DC9159976C
:103F9000DD2339F01496CD90DC901597C216D30628
:103FA00059F2CF5F5E96D5CFAE2F9F2FB18DB11155
:103FB0003CC08093BF04EF0182E0898F8091E202D0
:103FC0008C878091E3028D878091E4028E878091B7
:103FD000E5028F8780E092E09B8B8A8B9D8B8C8B98
:103FE00081E090E0998B888B1B8E8A8F83E0888F8D
:103FF0001E8A80E18F8B3D832C835F834E83F98201
:10400000E8827B836A83898D8F7009F4B3CF0E9425
:10401000A117898D8F708330B1F78C8D9D8DF8013C
:104020009587848781E090E0A7CFB73031F420975F
:1040300031F0D28CBA8DBD1510F0AC2F9D2F8F5F53
:104040007E96CA2FD92F90CF1F920F920FB60F9244
:1040500011242F933F938F939F93AF93BF9380919E
:10406000A4039091A503A091A603B091A70330915A
:10407000A30323E0230F2D3758F50196A11DB11D91
:104080002093A3038093A4039093A503A093A60376
:10409000B093A7038091A8039091A903A091AA03CC
:1040A000B091AB030196A11DB11D8093A80390931D
:1040B000A903A093AA03B093AB03BF91AF919F91C3
:1040C0008F913F912F910F900FBE0F901F901895D9
:1040D00026E8230F0296A11DB11DD2CF1F920F9289
:1040E0000FB60F9211242F933F934F935F936F93CB
:1040F0007F938F939F93AF93BF93EF93FF938CED39
:1041000095E00E94DA01FF91EF91BF91AF919F91ED
:104110008F917F916F915F914F913F912F910F9070
:104120000FBE0F901F9018951F920F920FB60F920F
:1041300011242F938F939F93EF93FF93E091EC05BE
:10414000F091ED058081E091F205F091F30582FD9B
:104150001BC090818091F5058F5F8F732091F605CC
:10416000821741F0E091F505F0E0E452FA4F958FA7
:104170008093F505FF91EF919F918F912F910F9073
:104180000FBE0F901F9018958081F4CFFC013381F2
:10419000360F3093DD02A72FBB2792819A0F9093A1
:1041A000DC0221812093DB0240814093DA029A17DE
:1041B0001B0648F481E0820F8093DB02811103C06B
:1041C0004F5F4093DA0277273617170688F49F5F10
:1041D0009093DC0291110CC08091DB028F5F809381
:1041E000DB02811105C08091DA028F5F8093DA02D1
:1041F0000895CF93DF93C091E702D091E802BC010C
:10420000CE0108960E94C620EAEDF2E08081888700
:104210008181898782818A8783818B87DF91CF9192
:104220000895CF93DF93ECEDF5E01382128288EED0
:1042300093E0A0E0B0E084839583A683B7838BE509
:1042400091E09183808385EC90E09587848784EC6E
:1042500090E09787868780EC90E0918B808B81EC53
:1042600090E0938B828B82EC90E0958B848B86EC34
:1042700090E0978B868B118E128E138E148EE9E749
:10428000F6E0CDE7D1E0D183C0831282138214829D
:104290001582EFE7F6E0D183C08312821382148285
:1042A0001582EEEDF6E0D183C08312821382148270
:1042B0001582E8EDF6E0D183C08312821382148266
:1042C000158284EC96E00E947F0BE4EEF6E0D18349
:1042D000C0831282138214821582EAEEF6E0D18343
:1042E000C0831282138214821582E0EFF6E0D1833C
:1042F000C0831282138214821582E3E0F7E0D18337
:10430000C0831282138214821582EDEFF6E0D1830E
:10431000C08380EC828388EA838381E0848381EB9D
:104320008583E6EFF6E0138212828DE691E09183B9
:10433000808380E090E5958384831682DF91CF911E
:104340000895CF93DF93CDB7DEB72E970FB6F894CD
:10435000DEBF0FBECDBF789484B5826084BD84B5C6
:10436000816084BD85B5826085BD85B5816085BD70
:1043700080916E00816080936E0010928100809128
:1043800081008260809381008091810081608093B0
:104390008100809180008160809380008091B100D5
:1043A00084608093B1008091B00081608093B00000
:1043B00080917A00846080937A0080917A00826094
:1043C00080937A0080917A00816080937A00809156
:1043D0007A00806880937A001092C100E091EC0529
:1043E000F091ED0582E08083E091E805F091E90528
:1043F0001082E091EA05F091EB058FEC808310923A
:10440000F405E091F005F091F10586E08083E091FC
:10441000EE05F091EF05808180618083E091EE05EB
:10442000F091EF05808188608083E091EE05F09146
:10443000EF05808180688083E091EE05F091EF05C3
:1044400080818F7D80830DE711E01A83098380913D
:10445000FF0690910007A0910107B09102078B839E
:104460009C83AD83BE83CE0101960E94C20886EF75
:1044700096E00E94351E6EE871E08CED95E00E949A
:10448000F20B60EB71E08CED95E00E94970B3091A0
:10449000B4032091B5039091B6038091B7031A83BA
:1044A00009833B832C839D838E836CED75E0CE0165
:1044B00001960E94EC0C6FE771E08CED95E00E9494
:1044C000970B82E00E94870083E00E94870084E0CF
:1044D0000E94870085E00E94870080E4982E9EE17C
:1044E000892E20E0A22E20E0B22E38EE432E33E0BB
:1044F000532E612C712C09E311E090927C00809185
:104500007A00806480937A0080917A0086FDFCCFE7
:104510006091780070917900072E000C880B990B40
:104520000E941E252AE038E240EA5BE30E94D32580
:1045300020E030E048EC52E40E94D3256B017C017E
:1045400065E572E08CED95E00E94970B22E0B701E3
:10455000A6018CED95E00E94060C6DEB71E08CEDF0
:1045600095E00E94F20B20E030E048EC51E4C701F6
:10457000B6010E94762487FF56C061E082E00E9467
:10458000A60060E083E00E94A60060E084E00E9454
:10459000A60060E085E00E94A6000E94A11780911D
:1045A000FA069091FB06EBE5F3E02281222309F461
:1045B0006BC0218120FF0CC0A0818A9ED0011124F4
:1045C000A15CBB4F14964D915C914817590741F07F
:1045D00022FF5AC0278130858217930709F054C003
:1045E0001C821B824D825E826F8278861A830983C9
:1045F000FE87ED87CE0101960E944D1F282E811166
:1046000054C068EE73E080E090E00E941701A114AE
:10461000B10409F472CF0E94C601882309F46DCF5A
:104620000E9400006ACF20E030E040EF51E4C70173
:10463000B6010E94762487FF06C060E082E00E94F7
:10464000A60061E09FCF20E030E04CE052E4C701DB
:10465000B6010E94762460E087FF09C082E00E94D4
:10466000A60060E083E00E94A60061E08FCF82E0B8
:104670000E94A60060E083E00E94A60060E084E063
:104680000E94A60061E086CF729623E0E33AF2072B
:1046900008F48BCF1C821B824D825E826F827886EB
:1046A0001A8309831E861D86A5CF322C03C08D3048
:1046B00009F0312CCE0101960E94A108882309F44B
:1046C0007BC0CE0101960E946108892B99F3CE012F
:1046D00001960E94A8078A3051F7332031F360EC2D
:1046E00071E0CE0101960E94F20B60ED71E0CE0107
:1046F00001960E94F20B68EE71E0CE0101960E94D5
:10470000F20B6FE771E0CE0101960E94970B6AEF02
:1047100071E0CE0101960E94F20B6AE072E0CE01D8
:1047200001960E94F20B61E172E0CE0101960E94B7
:10473000F20B6EE272E0CE0101960E94F20B65E38D
:1047400072E0CE0101960E94F20B62E572E0CE01AA
:1047500001960E94970B22E0B701A601CE010196B7
:104760000E94060C63E672E0CE0101960E94F20BF5
:104770006AE672E0CE0101960E94970B63E872E050
:10478000CE0101960E94970B65E972E0CE01019679
:104790000E94970B67EA72E0CE0101960E94970B88
:1047A00063EC72E0CE0101960E94F20B6BEC72E0BA
:1047B000CE0101960E94F20B61E070E080E090E093
:1047C0000E941701CE0101960E94631F1ACFA1E239
:1047D0001A2EAA1BBB1BFD010DC0AA1FBB1FEE1F7B
:1047E000FF1FA217B307E407F50720F0A21BB30BC6
:1047F000E40BF50B661F771F881F991F1A9469F742
:1048000060957095809590959B01AC01BD01CF019D
:1048100008955058BB27AA270E9421240C94942560
:104820000E94862538F00E948D2520F039F49F3FA4
:1048300019F426F40C9483250EF4E095E7FB0C9410
:104840007D25E92F0E94A52558F3BA176207730743
:104850008407950720F079F4A6F50C94C7250EF48B
:10486000E0950B2EBA2FA02D0B01B90190010C0180
:10487000CA01A0011124FF27591B99F0593F50F498
:10488000503E68F11A16F040A22F232F342F4427F0
:10489000585FF3CF469537952795A795F0405395E8
:1048A000C9F77EF41F16BA0B620B730B840BBAF0B8
:1048B0009150A1F0FF0FBB1F661F771F881FC2F723
:1048C0000EC0BA0F621F731F841F48F48795779537
:1048D0006795B795F7959E3F08F0B0CF9395880FF1
:1048E00008F09927EE0F9795879508950E9459250E
:1048F00008F481E008950E948F240C9494250E946E
:104900008D2558F00E94862540F029F45F3F29F05C
:104910000C947D2551110C94C8250C9483250E947C
:10492000A52568F39923B1F3552391F3951B550BF6
:10493000BB27AA2762177307840738F09F5F5F4F72
:10494000220F331F441FAA1FA9F335D00E2E3AF0B1
:10495000E0E832D091505040E695001CCAF72BD0C9
:10496000FE2F29D0660F771F881FBB1F261737071A
:104970004807AB07B0E809F0BB0B802DBF01FF274C
:1049800093585F4F3AF09E3F510578F00C947D2587
:104990000C94C8255F3FE4F3983ED4F38695779551
:1049A0006795B795F7959F5FC9F7880F911D969505
:1049B000879597F90895E1E0660F771F881FBB1F61
:1049C000621773078407BA0720F0621B730B840B0E
:1049D000BA0BEE1F88F7E09508950E94AD2588F088
:1049E0009F5798F0B92F9927B751B0F0E1F0660FB3
:1049F000771F881F991F1AF0BA95C9F714C0B130F4
:104A000091F00E94C725B1E008950C94C725672F47
:104A1000782F8827B85F39F0B93FCCF38695779522
:104A20006795B395D9F73EF490958095709561950B
:104A30007F4F8F4F9F4F0895E89409C097FB3EF436
:104A400090958095709561957F4F8F4F9F4F9923DB
:104A5000A9F0F92F96E9BB279395F6958795779559
:104A60006795B795F111F8CFFAF4BB0F11F460FF19
:104A70001BC06F5F7F4F8F4F9F4F16C0882311F071
:104A800096E911C0772321F09EE8872F762F05C085
:104A9000662371F096E8862F70E060E02AF09A9520
:104AA000660F771F881FDAF7880F9695879597F915
:104AB0000895990F0008550FAA0BE0E8FEEF1616AF
:104AC0001706E807F907C0F012161306E407F50702
:104AD00098F0621B730B840B950B39F40A2661F076
:104AE000232B242B252B21F408950A2609F4A14019
:104AF000A6958FEF811D811D089597F99F6780E826
:104B000070E060E008959FEF80EC089500240A941F
:104B10001616170618060906089500240A94121698
:104B20001306140605060895092E0394000C11F4CB
:104B3000882352F0BB0F40F4BF2B11F460FF04C078
:104B40006F5F7F4F8F4F9F4F089557FD9058440FD1
:104B5000551F59F05F3F71F04795880F97FB991FDC
:104B600061F09F3F79F08795089512161306140699
:104B7000551FF2CF4695F1DF08C016161706180626
:104B8000991FF1CF86957105610508940895E89401
:104B9000BB2766277727CB0197F908950E945925EF
:104BA00008F48FEF08950E94E6250C9494250E9446
:104BB000862538F00E948D2520F0952311F00C9465
:104BC0007D250C94832511240C94C8250E94A525CD
:104BD00070F3959FC1F3950F50E0551F629FF00150
:104BE000729FBB27F00DB11D639FAA27F00DB11D69
:104BF000AA1F649F6627B00DA11D661F829F2227F2
:104C0000B00DA11D621F739FB00DA11D621F839F78
:104C1000A00D611D221F749F3327A00D611D231F4E
:104C2000849F600D211D822F762F6A2F11249F579C
:104C300050409AF0F1F088234AF0EE0FFF1FBB1F9F
:104C4000661F771F881F91505040A9F79E3F51055E
:104C500080F00C947D250C94C8255F3FE4F3983ECA
:104C6000D4F3869577956795B795F795E7959F5F08
:104C7000C1F7FE2B880F911D9695879597F908959A
:104C80000E945925880B990B0895EE0FFF1F059080
:104C9000F491E02D0994FB01DC0102C001900D921A
:104CA00041505040D8F70895DC0101C06D93415048
:0A4CB0005040E0F70895F894FFCF9C
:104CBA00FFDEADBEEFFEED00000000B905A105F66E
:104CCA0005C619331A8405D219390BCF055E0B4D67
:104CDA001A631D70173D1AF419BB085E054F05FFCC
:104CEA00FFFFFFFFFF00000000391F341F5B1E6932
:104CFA00076108A8077E07801FCE1DC507631FA18D
:104D0A00084D1F8F08B10800000000FC015C0189F2
:104D1A00014902BA019801AC0100000000D105F670
:104D2A001EF605F505351EE70500000000EC0C0D22
:104D3A000A006E616E00696E66006F7666004574E1
:104D4A006865726E65742073657276657220697320
:104D5A0020757020616E642072756E6E696E6700D0
:104D6A00495020416464726573733A2000204300FD
:104D7A00485454502F312E3120323030204F4B00BE
:104D8A00436F6E74656E742D547970653A2074653C
:104D9A0078742F68746D6C00436F6E6E6563746906
:104DAA006F6E3A20636C6F7365003C21444F435425
:104DBA005950452048544D4C3E003C68746D6C3E39
:104DCA00003C686561643E3C7469746C653E3C2FC6
:104DDA007469746C653E3C2F686561643E003C6290
:104DEA006F64793E003C68313E54656D706572614E
:104DFA0074757265204D6F6E69746F723C2F6831DD
:104E0A003E003C703E54656D7065726174757265E2
:104E1A003A200020433C2F703E003C703E4D75689E
:104E2A00616D6D61642053616E7472696B6F3C2FA2
:104E3A00703E003C703E31343632313030313932D6
:104E4A003C2F703E003C703E31322D30312D3230D5
:104E5A0030333C2F703E003C703E73616E74726951
:104E6A006B6F373740676D61696C2E636F6D3C2FCE
:104E7A00703E003C2F626F64793E003C2F68746D6F
:044E8A006C3E00007A
:00000001FF
